:100000000C94FD000C9425010C9425010C94250101
:100010000C9425010C9425010C9425010C942501C8
:100020000C9425010C9425010C94AF040C941E052E
:100030000C9425010C9425010C9425010C942501A8
:100040000C9425010C9425010C9425010C94250198
:100050000C9425010C9425010C9425010C94500757
:100060000C9425010C9425010C9425010C94250178
:100070000C9425010C9425010C9425010C94250168
:100080000C949A070C9425010C9425010C942501DD
:100090000C9425010C9425010C9425010C94250148
:1000A0000C9425010C9425010C942501D5F08D1498
:1000B000A1C881CFD9F1AF2000F0F89C8E8783874B
:1000C0008E9CF8F00000FEFF0303030303070EFC01
:1000D000F80000FEFF0303030303070EFCF8000013
:1000E000FFFF00000000000000FFFF0000FEFF8394
:1000F00083838383C7EE7C380000F8FC0E0703037C
:1001000003070EFCF800003F7FE0C08080C0E07F66
:100110003FFFFF01010101010101FFFF0000FFFF9F
:100120000C0C0C0C1C3E77E3C100007FFFC0C0C06C
:10013000C0C0E0703F1F00001F3F70E0C0C0C0E0C3
:10014000703F1F00007FFFC1C1C1C1C1E3773E1CEA
:1001500000001F3F70E0C0C0C0E0703F1F00000003
:10016000000001FFFF01000000C0A0D931A800A8D5
:1001700007220007A800220007220007080B000240
:100180000202000009040000010202000005240030
:1001900010010524010101042402060524060001C2
:1001A0000705810310004009040100020A00000055
:1001B0000705020240000007058302400000040317
:1001C000090412010002EF020140412336800001C0
:1001D0000102030141726475696E6F204C4C43004B
:1001E00041726475626F79000103070F1F3F7FFF43
:1001F000FFFEFCF8F0E0C080F90711241FBECFEF2E
:10020000DAE0DEBFCDBF11E0A0E0B1E0E2E3F6E16D
:1002100002C005900D92A632B107D9F725E0A6E2FB
:10022000B1E001C01D92AF39B207E1F710E0CDEFA8
:10023000D0E004C02197FE010E94110BCC3FD107F2
:10024000C9F70E940E080C94170B0C940000EFE9FC
:10025000F1E0A0E0B8E000800EBC8111012C119704
:10026000A0FDFDCF0192B9F70DB40895CF93DF93B0
:1002700020919E01211140C04170442309F469C0BE
:1002800060347105B4F5803891059CF577FD60E028
:10029000E62F615F613408F060E46150AC0197FFC4
:1002A00002C050E040E090E8941B4B3708F495E022
:1002B0007E2F787F862F887FE770F0E0E051FE4F39
:1002C00024916770E62FF0E0E851FE4FE49130E1B1
:1002D000739FD0011124A40FB51FA156BE4FED018D
:1002E000392F78130BC0E2238C918E2B8D93915074
:1002F000D9F7DF91CF9108954695BFCF4881422B22
:1003000049933150D9F74FEF490FC42FD0E040E85F
:10031000491B50E09E012F5F3F4F240F351F2A0FCE
:100320003B1F871B88507FEF4C0F5D1F4F5F5F4F58
:10033000D901181644F4692F7D936150E9F788506C
:10034000240F351FF5CF8C918E2B8D939150D9F7BB
:10035000D0CF603471056CF68038910554F677FD86
:1003600060E0E62F615F613408F060E46150AC0149
:1003700097FF02C050E040E020E8241B4B3708F410
:1003800025E07E2F787F362F387FE770F0E0E05150
:10039000FE4F94916770E62FF0E0E851FE4FE49134
:1003A00080E1789FD0011124A40FB51FA156BE4F44
:1003B000731308C0E923E0958C918E238D9321500F
:1003C000D9F797CF9095ED01822F48814923499322
:1003D0008150D9F74FEF420FC42FD0E090E8921B25
:1003E000492F50E0CE010196840F951F8A0F9B1F65
:1003F000371B38504C0F5D1F4F5F5F4F13164CF487
:10040000DC01622F1D926150E9F73850840F951F6F
:10041000F5CFE095DC018C918E238D932150D9F797
:1004200068CFFC0180919D01882311F13FB7F894BA
:1004300082E08093E9002091F200822F90E018166C
:10044000190614F481E090E0882339F0289844E6F6
:1004500040939C014091F1004083222339F0209188
:10046000F200211103C02BE62093E8003FBF08955E
:100470008FEF9FEF08952FB7F89483E08093E90002
:100480009091E800892F807295FF04C09091F2004E
:1004900080E4891B2FBF08958091940181110DC0C4
:1004A00082E08093900184E0809391011092930107
:1004B0001092920181E08093940180E991E0089587
:1004C000CF93DF931F92CDB7DEB76983DC01ED9147
:1004D000FC910280F381E02D41E050E0BE016F5FAE
:1004E0007F4F09950F90DF91CF91089583E080931E
:1004F000E9008091F200882319F08AE38093E800F4
:1005000008950E943B0290E00895CF93DF931F92DD
:10051000CDB7DEB7FC018485958597FD08C02FEF28
:100520003FEF358724870F90DF91CF910895CE015B
:1005300001960E941102019719F4898190E0F3CF8E
:100540008FEF9FEFF0CF0F931F93CF93DF931F9207
:10055000CDB7DEB78C01FC018485958597FF0BC074
:10056000CE0101960E941102019771F4898190E0F9
:10057000F80195878487F801848595850F90DF9130
:10058000CF911F910F9108958FEF9FEFF1CFFC0155
:100590008485958597FD0BC09FB7F89482E0809382
:1005A000E9008091F2009FBF90E0019608959FB707
:1005B000F89482E08093E9008091F2009FBF90E080
:1005C000089540913A0150913B01209138013091BA
:1005D000390142175307B4F49091E8009570E1F3A4
:1005E0009091E80092FD19C08093F10080913A014A
:1005F00090913B0101968F739927892B19F48EEF07
:100600008093E80080913A0190913B01019690938C
:100610003B0180933A0181E0089580E00895DF92E4
:10062000EF92FF920F931F93CF93DF93D82E8A01FF
:10063000EB017B01E40EF51ECE15DF0559F0D7FE68
:1006400012C0FE0184910E94E10221968111F4CF33
:100650000FEF1FEFC801DF91CF911F910F91FF9016
:10066000EF90DF9008958881EECF0F931F93CF9383
:10067000DF931F92CDB7DEB782E0898342E450E07A
:100680006CE771E080E80E940F030E944C02DC01DD
:1006900012960D911C910115110589F0D801ED916B
:1006A000FC910280F381E02DBE016F5F7F4FC80196
:1006B000099597FD04C0F80100851185ECCF89816B
:1006C0000F90DF91CF911F910F910895615030F0FD
:1006D0002091F100FC0120830196F8CF289884E650
:1006E00080939C0108953FB7F894809134019091D4
:1006F0003501A0913601B091370126B5A89B05C000
:100700002F3F19F00196A11DB11D3FBFBA2FA92F90
:10071000982F8827BC01CD01620F711D811D911D8D
:1007200042E0660F771F881F991F4A95D1F70895F9
:100730008F929F92AF92BF92CF92DF92EF92FF92F1
:100740006B017C010E9473034B015C01C114D10455
:10075000E104F104B9F00E947303681979098A0968
:100760009B09683E73408105910580F321E0C21A20
:10077000D108E108F10888EE880E83E0981EA11CDC
:10078000B11CE4CFFF90EF90DF90CF90BF90AF907F
:100790009F908F9008958F929F92AF92BF92CF9229
:1007A000DF92EF92FF920F931F93CF93DF936C0131
:1007B0007B018A0180910B01882309F45CC0809140
:1007C0009D01882309F457C080913F0180FF05C037
:1007D0008091E00082608093E000E801B12C8AEF14
:1007E000A82E93E0892E2AE3922E209711F4BB20A5
:1007F000D9F10E943B0281110AC0AA94AA20D9F122
:1008000061E070E080E090E00E949803EECF8C17EA
:100810001D0611F00CF08C2F9FB7F8948092E90020
:100820002091E80025FD02C09FBFDFCF282F30E0D8
:10083000C21BD30BF701815020F041914093F1008E
:10084000FACFE20EF31EBB2021F09092E800B12C0B
:10085000EBCF8091E80085FDE7CF9092E800BB24C4
:10086000B394209709F3F3CF5D9884E680933E011B
:10087000101611063CF081E090E0F601938382832C
:1008800010E000E0C801DF91CF911F910F91FF9020
:10089000EF90DF90CF90BF90AF909F908F90089592
:1008A0002D9A0895BC0190E080E00C9498038FB1DC
:1008B0008095807F669B88601C9B846008958EBDB8
:1008C00000000DB407FEFDCF08955C9808955C9A72
:1008D0000895CF93C82F0E945704982F9C2381E03E
:1008E0009C1380E0CF9108950F9330E8439FF0016F
:1008F000112430E73CBD8E0F9F1FDC010E90002DB0
:100900006111012D0C9300503097309702220EBCDC
:100910003197A1F70DB430973097309730973097D3
:1009200080E58CBD0F910895FF920F931F93CF9395
:10093000DF93F82E092F162F0E946504CF2DD02F9C
:10094000115030F0FE0184910E945F042196F8CF8F
:10095000DF91CF911F910F91FF900C9467041F922C
:100960000F920FB60F9211248F939F938091E10005
:100970009091E100937F9093E10083FF0FC010926C
:10098000E90091E09093EB001092EC0092E39093D9
:10099000ED0010929D0198E09093F00082FF22C03C
:1009A00093E09093E9009091F200992319F09AE373
:1009B0009093E80090913E01992341F090913E017F
:1009C000915090933E01911101C05D9A90919C01CC
:1009D000992341F090919C01915090939C01911129
:1009E00001C0289A84FF18C08091E2008E7E816049
:1009F0008093E2008091E1008F7E8093E1008091FE
:100A00003F018E7E806180933F019F918F910F9077
:100A10000FBE0F901F90189580FFF7CF8091E200D6
:100A20008E7E80618093E2008091E1008E7E8093D3
:100A3000E10080913F018E7E8160E5CF1F920F9291
:100A40000FB60F921124CF92DF92EF92FF920F9385
:100A50001F932F933F934F935F936F937F938F9346
:100A60009F93AF93BF93EF93FF93CF93DF93CDB754
:100A7000DEB76C97DEBFCDBF1092E9008091E80031
:100A800083FF25C068E0CE0145960E94660382EF91
:100A90008093E8008D8987FF39C09091E80090FF2E
:100AA000FCCF982F907609F034C19E894F89588DDC
:100AB0002F89F88C911131C0803861F580913D010A
:100AC0008093F1001092F1008EEF8093E8006C9615
:100AD0000FB6F894DEBF0FBECDBFDF91CF91FF916F
:100AE000EF91BF91AF919F918F917F916F915F91A6
:100AF0004F913F912F911F910F91FF90EF90DF90B9
:100B0000CF900F900FBE0F901F9018959EEF90936F
:100B1000E800C7CF1092F100D5CF913059F4811180
:100B2000D3CF4130510581F680913D018D7F809377
:100B30003D01CACF933049F48111C6CF41305105F0
:100B400019F680913D018260F2CF953041F4809199
:100B5000E80080FFFCCF20682093E300B5CF9630FB
:100B600009F0A9C00B8D1C8D22E01092E9001092B3
:100B70003B0110923A01F2122EC0109239011092EC
:100B800038010E9435031F8299E09983FA8291E02F
:100B90009E8390EA98879AEF998720913A01309145
:100BA0003B01275F3F4F3C832B838D831092E900ED
:100BB00010923B0110923A011093390100933801D1
:100BC00049E050E0BE016F5F7F4F80E00E940F035D
:100BD0000E94350379CF10933901009338010E94A8
:100BE0004C02DC0112960D911C910115110509F4BE
:100BF00051C1D801ED91FC910480F581E02DBE0139
:100C00006B5E7F4FC8010995009709F03EC1F8015E
:100C100000851185EACFF3E0FF120EC08F8988238B
:100C200009F440C0823061F440E867E080EE91E072
:100C30000E94C607811148CF81E28093EB0047CF25
:100C4000813029F440E86BE084ED91E0F1CF83300E
:100C500099F70E944C02DC011296ED90FC908E01F7
:100C60000F5F1F4F6801E114F10479F0D701ED9196
:100C7000FC910680F781E02DB801C7010995080FA6
:100C8000111DF701E084F184EECFD8011C92F6012A
:100C900001900020E9F73197BF016C197D0940E010
:100CA000C601C6CF6EEB71E0FB01449150E080E8D5
:100CB0000E940F0309CF973009F4BECF983021F47A
:100CC00081E08093F10000CF993009F0FDCE837070
:100CD00009F0B2CFEDE0F1E081E031E096E321915F
:100CE000222371F08093E9003093EB00DF0111972C
:100CF0002C912093EC009093ED008F5F873079F773
:100D00008EE78093EA001092EA008F8980939D011C
:100D1000DBCE8B8D9C8D1092E90010923B011092DE
:100D20003A019093390180933801898D811192C0E5
:100D30008E899D89913A49F4813209F07DCF47E04F
:100D400050E064E071E080E0B3CF913209F074CFFD
:100D5000833269F48F89988DB0E0A0E08093000120
:100D600090930101A0930201B0930301ADCE8032B4
:100D700069F48091E80082FFFCCF67E084E091E0B5
:100D80000E9466038BEF8093E8009ECE823209F0CA
:100D90009BCE8F8980930B01EEEFFFE785919491B5
:100DA0008B3F9C4D51F1E0E0F8E08091040190917F
:100DB0000501A0910601B0910701803B9440A10577
:100DC000B105F1F480910B0180FD1AC0EE3F8AE07D
:100DD000F80789F587E797E7918380838091600022
:100DE00080933C0188E19BE00FB6F894A89580932E
:100DF00060000FBE9093600067CEEEEFFAE0D5CFB3
:100E0000808191818737974709F05ECEA8958091C0
:100E1000600088618093600080913C018093600055
:100E2000EE3F2AE0F20789F08091FE0A9091FF0AD6
:100E30009183808349CE808191818737980751F2D1
:100E40009093FF0A8093FE0AC5CF1092FF0A10927A
:100E5000FE0A3ACE0E944C02DC0112960D911C91C2
:100E60000115110509F4E8CED801ED91FC9101902E
:100E7000F081E02DBE016B5E7F4FC80109958111A5
:100E800023CEF80100851185EBCF181619060CF456
:100E90001BCED2CEF1E0FF12BECE62EC71E004CFE9
:100EA0001F920F920FB60F9211242F933F938F939F
:100EB0009F93AF93BF938091300190913101A091A6
:100EC0003201B091330130912F0123E0230F2D37F0
:100ED00058F50196A11DB11D20932F01809330017B
:100EE00090933101A0933201B0933301809134018A
:100EF00090913501A0913601B09137010196A11D65
:100F0000B11D8093340190933501A0933601B093C5
:100F10003701BF91AF919F918F913F912F910F908A
:100F20000FBE0F901F90189526E8230F0296A11D63
:100F3000B11DD2CF1F920F920FB60F9211248F9333
:100F40009F93809126018F5F843048F4809326011F
:100F500080912601813029F484E790E006C081E089
:100F6000F5CF823039F48BE397E09093990080932A
:100F7000980002C0833081F381E0809327019F9124
:100F80008F910F900FBE0F901F901895EF92FF92C8
:100F90000F931F93CF93DF93F82E192FE62E042F74
:100FA00081E0860F880F0E94E10283E00E94E10247
:100FB000CF2DD12FEC0EFD2EF11CCE15DF05B9F093
:100FC00007FF13C0FE0184910E94E102182F80E008
:100FD0000E94E102812321968111EFCFDF91CF9111
:100FE0001F910F91FF90EF9008958881EDCF81E0E0
:100FF000F5CFE0E4F1E01382128288EE93E0A0E006
:10100000B0E084839583A683B78387E191E09183E1
:1010100080838FEF9FEF958784870895789484B5B8
:10102000826084BD84B5816084BD85B5826085BDE4
:1010300085B5816085BD80916E00816080936E0072
:101040001092810080918100826080938100809164
:101050008100816080938100809180008160809315
:101060008000809191008260809391008091910036
:1010700081608093910080919000816080939000C6
:101080008091C10084608093C1008091C100826022
:101090008093C1008091C10081608093C1008091E4
:1010A000C30081608093C3008091C0008260809300
:1010B000C0008091C20081608093C20080917A005C
:1010C000846080937A0080917A00826080937A00B5
:1010D00080917A00816080937A0080917A008068A4
:1010E00080937A0010929D0110923D0110923F0171
:1010F0008091D70081608093D70080EA8093D800E8
:1011000089B5806189BD89B5826089BD09B400FE59
:10111000FDCF61E070E080E090E00E949803809154
:10112000D8008F7C80618093D8008091E000807F20
:101130008093E0008091E1008E7E8093E1008DE05D
:101140008093E200559A209A81EC80937C0085B1CF
:10115000806F85B984B1877E84B984B1876E84B984
:101160005E9A5F988AB1806D8AB9769A6E9881B3DB
:10117000806F81BB899880B38D7080BB80E58CBD0A
:1011800081E08DBD85E090E00E9452045F9A85E089
:1011900090E00E9452045E980E946504CCEAD0E080
:1011A000FE0184910E945F042196F0E0C93BDF07B5
:1011B000B9F70E94670481E880936400809165001C
:1011C00081608093650080E00E94270180E80E9492
:1011D00069048823A1F00E94650485EA0E945F04E7
:1011E0000E9467042E982F982D9880916400806249
:1011F0008093640081E083BF889513BEFCCF84E0B8
:101200000E946904882309F448C02D9884E80E944C
:1012100069048823E1F00E94500488EC90E00E9469
:1012200052042F9882E090E00E94FB0A8F3F29F041
:101230006FEF82E090E00E94030B84EF91E00E9448
:1012400052042F9A84E80E9469048111FBCF84E143
:101250000E9469048823E1F00E94500488EC90E029
:101260000E9452042E9882E090E00E94FB0A88239C
:1012700029F060E082E090E00E94030B84EF91E0AF
:101280000E9452042E9A84E10E9469048111FBCFCE
:1012900088EC90E00E945204B2CF0E94500482E099
:1012A00090E00E94FB0A882309F46BC03E9A3F9AA3
:1012B00081E090E00E94FB0A8470B82E81E090E00B
:1012C0000E94FB0A81FF12C0B1102E98C1EFDFEF20
:1012D00008E010E078E5A72E80E40E9469048823E6
:1012E00009F452C02E9A2F9A0E94500482E390E093
:1012F0000E9452040E9457048111F8CF66E089E6EB
:1013000091E00E9494048BE397E09093990080937E
:10131000980083E0809390008BE18093910010927D
:10132000950010929400809171008260809371000A
:1013300080E0E82E80E0F82E809127018823D9F004
:101340001092270180912601813009F0AFC0809171
:101350009E01C0EF80FFC0E70E94650481E80E9403
:101360005F048C2F0E945F040E94670465E08FE693
:1013700091E00E949404E114F104F1F20E94000053
:10138000DBCF3E983F9894CFBB2029F0C430D105E5
:1013900011F42E9A2F9881E00E9427019E01D7FF19
:1013A00004C0222733272C1B3D0B27703327CE0187
:1013B000D7FD079663E0959587956A95E1F7D7FF86
:1013C00005C00197A801421B530B9A01BC017695F9
:1013D000762F66277795679561567E4FF12CE12C25
:1013E0003801621A730A8E3F5FEF950709F43DC01A
:1013F000AE9CD001AF9CB00D112450E040E0A7544A
:10140000BF4F4B01E0E88E0E911C8F3F980791F083
:10141000FD01E40FF51FE4916B01C40ED51EF0E051
:101420002F01022E01C0440C0A94EAF7F6015488F9
:101430004528448A2115310599F0FD01E40FF51F77
:10144000E4916401C40ED51EF0E02F01062C02C009
:10145000559447940A94E2F7F60154884528448A43
:101460004F5F5F4F4835510581F6019660587F4FB9
:10147000EA94EF28B9F480E00E9427018FE090E021
:101480000E9452042196C931D10509F025CFBB2015
:1014900011F02F9A2D9880E991E00E9452040E9449
:1014A000500424CFEE24E394F12C9DCF823059F4E4
:1014B00020EF41E060E08FE195E00E94740463E07A
:1014C00089E791E056CF833009F055CF63E086E796
:1014D00091E00E9494042FEF41E060E08FE195E0FD
:1014E0000E94740462E084E791E00E9494042FEF6C
:1014F00047E061E08FE991E00E94740420E041E060
:1015000061E08FE195E00E94740480919E018F5FFD
:10151000833008F06DC080939E0180919E018111FF
:1015200005C080912E018F5F80932E0180912E0146
:10153000882309F443C010922E0180912C019091D0
:101540002D01019690932D0180932C0180E80E943B
:101550006904882349F080912A0190912B01019719
:1015600090932B0180932A0180E10E9469048823D3
:1015700049F080912A0190912B01019690932B01C3
:1015800080932A0180E20E946904882349F08091B7
:1015900028019091290101979093290180932801B6
:1015A00080E40E946904882349F080912801909189
:1015B00029010196909329018093280100912A0125
:1015C00010912B01C0912801D091290143E0B8016D
:1015D000CE010E94360142E0B801CE0105960E947C
:1015E000360141E0B801CE010A960E943601C3CE11
:1015F00010929E0192CFF999FECF92BD81BDF89ACB
:10160000992780B50895262FF999FECF1FBA92BD6C
:1016100081BD20BD0FB6F894FA9AF99A0FBE0196D3
:101620000895EE0FFF1F0590F491E02D0994F894B2
:02163000FFCFEA
:10163200FFFFFFFF00E100000000000000C1808109
:10164200000000000000006002CB0381027602C7A6
:06165200028502A3020064
:00000001FF
